:020000040800F2
:1000000000C0002049070008BD060008BF06000820
:10001000C1060008C3060008C5060008000000006D
:10002000000000000000000000000000C7060008FB
:10003000C906000800000000CB060008CD06000835
:100040009107000891070008910700089107000830
:100050009107000891070008910700089107000820
:100060009107000891070008910700089107000810
:100070009107000891070008910700089107000800
:1000800091070008910700089107000891070008F0
:1000900091070008910700089107000891070008E0
:1000A00091070008910700089107000891070008D0
:1000B00091070008910700089107000891070008C0
:1000C00091070008910700089107000891070008B0
:1000D00091070008910700089107000891070008A0
:1000E0009107000891070008910700089107000890
:1000F0009107000891070008910700089107000880
:10010000910700089107000891070008910700086F
:10011000910700089107000891070008910700085F
:10012000910700089107000891070008910700084F
:1001300000000000000000000000000000000000BF
:1001400000000000000000000000000000000000AF
:10015000000000000000000000000000000000009F
:10016000000000000000000000000000000000008F
:10017000000000000000000000000000000000007F
:10018000000000000000000000000000000000006F
:10019000000000000000000000000000000000005F
:1001A000000000000000000000000000000000004F
:1001B000000000000000000000000000000000003F
:1001C000000000000000000000000000000000002F
:1001D000000000000000000000000000000000001F
:0401E0005FF8E0F1F3
:1001E40010B5054C237833B9044B13B10448AFF36D
:1001F40000800123237010BD68000020000000006F
:10020400C823000808B5034B1BB103490348AFF3E7
:10021400008008BD000000006C000020C823000816
:1002240078232DE9F047ADF5836D00218DF8023078
:1002340079234FF47F7207A88DF80330069101F0FB
:1002440033FB67238DF8043030236524784F794DD0
:1002540006AE8DF808304FF40051384600F054FDD6
:100264004FF0FF33012201A9284601F074F80A2354
:100274000122284602A901F0B9F860BB9DF80830B4
:10028400722B28D16C4801F02FFA4FF0FF33012272
:100294000DF10301674801F05EF8012241F2883351
:1002A40064480DEB020101F0A1F808BB4FF0FF33E5
:1002B40001220DF102015F4801F04DF841F288334B
:1002C400012269465B4801F091F80446A0B15B48FD
:1002D40001F00AFA0FE0013C06D1594801F004FA92
:1002E4000DF5836DBDE8F087142000F099FAB2E7AC
:1002F400544801F0F9F9FEE79DF800309DF801102B
:10030400514F41EA032151483980254601F084F9CF
:10031400DFF83C91DFF83C81B4F5806F02D03B8874
:10032400AB4247D8A90A484601F076F900F008FB29
:1003340004460028DFD1B5F5806F0FD8464801F098
:10034400D3F92F23454A01A902A8CDE90423029435
:1003540000F0A0FB002843D13E4B188034464FF0F8
:10036400000AB8F800102378627801F1006143EACA
:1003740002220120002301F5884100F027FB80BB05
:10038400B8F800300AF1010A0233BAF5007FA8F880
:10039400003004F10204E4D100F0E4FA0446002839
:1003A400A9D101464FF48062304601F07DFA3B88C2
:1003B400AB4295D94FF0FF3301220DF103011D48E3
:1003C40000F0C9FF012241F288331A480DEB020103
:1003D40001F00CF848B12146214801F01DF98AE7E3
:1003E40089E7204801F080F985E74FF0FF330122C7
:1003F4000DF102010F4800F0AEFF41F288330122F3
:1004040069460C4800F0F2FF20B12146164801F07D
:1004140003F970E79DF80120631C32559DF8002014
:100424009BB202340235A4B2F254ADB274E700BFF9
:100434000010014088000020E02300084A2400083E
:10044400F92300081F2400088600002074240008F3
:100454009224000884000020A72400080044000817
:10046400E1240008C42400081725000801380128E5
:1004740010B5144607D84FF0FF33044892B200F089
:100484006AFF204610BD4FF0FF34FAE7D000002089
:1004940010B590B01422002108A801F005FA142226
:1004A400002101A801F000FA02244FF48033012254
:1004B400CDE90D43CDE906234FF4E01306A80A92D3
:1004C4000F9300F02BFC08B172B6FEE70F23CDE9C1
:1004D40001344FF480630390CDE90430214601A830
:1004E40000F0DEFD08B172B6FEE710B010BD0000EA
:1004F4004FF4E13507B500F06FF9FFF7C9FF244B5E
:1005040024489A690C2442F020029A619A6902F004
:1005140020020092009A9A6942F004029A619B694F
:1005240003F004030193019B1B4BC0E90035002336
:10053400C0E90233C0E905430361C36100F0DCFE96
:10054400034608B172B6FEE71448154AC0E90233FF
:10055400C0E90025C0E90434C0E9063300F0CCFE4C
:1005640008B172B6FEE7FFF75BFE0E4801F0BCF877
:100574000D4AD2F80434591C03D10C4801F0B4F8E4
:10058400FEE7D2F8002482F308889847FEE700BF0C
:10059400001002408800002000440040D0000020E9
:1005A400003801404C250008004000086A25000876
:1005B4000E4B82B09A6942F001029A619A6902F084
:1005C40001020092009ADA6942F08052DA61DB6932
:1005D400074A03F080530193019B536823F0E063BF
:1005E40043F00073536002B0704700BF0010024034
:1005F40000000140102210B5044688B00DEB020043
:10060400002101F051F92368274A934229D1274B4D
:100614004FF400719A69264842F480429A619A69BB
:1006240002F480420092009A9A6942F004029A61AC
:100634009B6903F004030193019B0223CDE9041396
:10064400032304A9079300F079FA4FF48063049319
:100654000023174804A9CDE9053300F06FFA08B068
:1006640010BD144A9342FAD1104B1148DA6904A917
:1006740042F40032DA61DA6902F400320292029A38
:100684009A6942F004029A619B69042203F004030C
:100694000393039B0223CDE904230323079300F070
:1006A4004DFA0823D3E700BF003801400010024090
:1006B4000008014000440040FEE7FEE7FEE7FEE7D5
:1006C400FEE770477047704700F098B870B50D4664
:1006D40014460E46731B9C4201DC204670BDAFF3EA
:1006E400008006F8010BF5E74FF0FF3070474FF438
:1006F400005300204B607047012070470020704772
:100704000B4A0346116810B509B90A49116010680B
:1007140009490A4C0344091B8B4206D901F012F91A
:100724000C2303604FF0FF3010BD1360FCE700BFE3
:10073400180100209002002000C0002000040000E6
:1007440070470000FFF7FCFF0B480C490C4A0023DC
:1007540002E0D458C4500433C4188C42F9D3094A73
:10076400094C002301E013600432A242FBD301F0E0
:10077400EFF8FFF7BDFE704700000020680000207E
:10078400F0250008680000208C020020FEE700002D
:1007940038B50E4B05461A784FF47A73B3FBF2F36F
:1007A4000B4A1068B0FBF3F000F08EF8044658B919
:1007B4000F2D09D8024629464FF0FF3000F054F8B7
:1007C4002046044B1D6038BD0120FCE704000020D6
:1007D4000000002008000020074A08B51368032021
:1007E40043F01003136000F02DF80F20FFF7D0FF43
:1007F400FFF7DEFE002008BD00200240034A044B40
:1008040011681B780B441360704700BF1C01002063
:1008140004000020014B1868704700BF1C01002031
:1008240038B50446FFF7F6FF0546631C1EBF044BAC
:100834001B78E418FFF7EEFF431BA342FAD338BD3D
:100844000400002007490302CA6803F4E06322F4A9
:10085400E0621204120C134343F0BF6343F4003309
:10086400CB60704700ED00E0154B30B5DC68C4F395
:100874000224C4F10703251D042B28BF0423062DDD
:100884004FF0FF3594BF0024033C05FA03F321EA3B
:100894000303A54022EA0502A340002843EA020319
:1008A400ACBF00F16040074A4FEA0313DBB2ABBFB1
:1008B40000F5614000F00F0080F80033135430BDA0
:1008C40000ED00E014ED00E00138B0F1807F0BD2C0
:1008D4004FF0E023F021054A586182F823100020EC
:1008E400072298611A6170470120704700ED00E00B
:1008F400114AD36813F0100305D01049CB6943F0B3
:100904000203CB611023D268500706D50B4943F08C
:100914000403CA6942F00102CA61074AD169C907DE
:1009240008D50648C16941F00401C161D16921F0CB
:100934000101D161D36070470020024020010020F2
:10094400064B186910F0800007D0054A5A6002F17E
:1009540088325A601869C0F3C01070470020024002
:1009640023016745034A0020136943F080031361A0
:10097400704700BF0020024070B50546FFF74AFFEC
:100984000646114CE368D80712D4E368990644BFBD
:100994002023E360E368DA0606D4E369DB0703D4C3
:1009A400E06810F0040007D0FFF7A2FF012003E085
:1009B4006B1CE7D00DB9032070BDFFF72BFF801B24
:1009C400A842DFD9F7E700BF002002402DE9F84F25
:1009D400DFF894A01F469AF818300546012B884684
:1009E40091463FD001234CF250308AF81830FFF77B
:1009F400C3FF90BB012D03D0022D14BF0425022593
:100A040000263346DFF864B03401C4F12001A4F1B8
:100A1400200207FA01F129FA04F4CAF81C300C4345
:100A240027FA02F21443DBF81020A4B242F00102C8
:100A3400CBF810204CF2503028F81640FFF79CFFFA
:100A4400DBF8102022F00102CBF8102028B901367F
:100A5400F2B295424FF00003D6D800238AF818303A
:100A6400BDE8F88F0220FBE72001002000200240AF
:100A74000022064BDA61064B1A6942F002021A613F
:100A840058611A6942F040021A617047200100203F
:100A9400002002402DE9F041264F05463B7E884662
:100AA400012B44D001243C7603684CF25030022BD5
:100AB4001AD1FFF761FF20B1012000233B76BDE886
:100AC400F0811D4CF86123694CF2503043F004036B
:100AD4002361236943F040032361FFF74DFF23693A
:100AE40023F004032361E8E7FFF746FF0028E3D17E
:100AF4004FF0FF33C8F800302046AE680E4CD5E9FD
:100B0400023203EBC223B342D7D93046FFF7B0FF1A
:100B14004CF25030FFF730FF236923F002032361C6
:100B240010B1C8F80060C8E706F50066E7E70220E0
:100B3400C5E700BF20010020002002402DE9F74F47
:100B440000242646DFF8A4C1694BDFF8A8E1DFF8EA
:100B5400A8810A6832FA06F502D103B0BDE8F08F25
:100B64000127B74002EA070537EA020240F0838012
:100B74004A68032A07D8013A022A00F28C80DFE887
:100B840002F09BA0A600122A00F09E8075D8112ABC
:100B940000F09480FF2D98BF81464FF00F0B88BF63
:100BA40000F104094FEA8602D9F8007088BF203AA0
:100BB4000BFA02FA27EA0A0704FA02F21743C9F801
:100BC4000070D1F8049019F0805F54D0DCF818203C
:100BD40026F0030742F00102CCF81820DCF81820B4
:100BE40007F1804702F00102019207F5803706F011
:100BF400030A019A4FEA8A0ABA680BFA0AFB22EA44
:100C04000B0B3E4A904266D002F58062904264D05B
:100C140002F58062904262D002F58062904260D018
:100C240002F5806290425ED002F58062904214BF69
:100C34000622052202FA0AF242EA0B02BA609A6814
:100C440019F4801F14BF2A43AA439A60DA6819F47E
:100C5400001F14BF2A43AA43DA605A6819F4003FFC
:100C640014BF2A43AA435A601A6819F4803F14BF78
:100C74002A43AA431A6001366BE7DFF884904A4599
:100C840009D011D8A9F580194A4504D0724502D07B
:100C940042457FF47FAF8A68DAB1012A4FF0080435
:100CA4000CBF0761476175E7DFF858904A45F2D0F9
:100CB40009F580394A45ECE7CC686BE7CC68043425
:100CC40068E7CC68083465E7CC680C3462E7002434
:100CD40060E704245EE70022ACE70122AAE70222CF
:100CE400A8E70322A6E70422A4E700BF00100240FD
:100CF4000004014000002110000011100008014010
:100D04000000221000003110C36801EA030221EA46
:100D1400030141EA02410161704700002DE9F341FA
:100D2400054638B30368DB0710D42B689F075ED4ED
:100D34002B68190700F195802B685A0700F1C180D0
:100D4400EB69002B40F02C81002029E0904C636873
:100D540003F00C03042B07D0636803F00C03082B87
:100D64000AD16368DE0307D523689C03DDD56B686D
:100D7400002BDAD1012013E06B68B3F5803F12D168
:100D8400236843F480332360FFF744FD0646236859
:100D94009803CAD4FFF73EFD801B6428F7D90320CB
:100DA40002B0BDE8F0819BB9236823F4803323604B
:100DB400236823F480232360FFF72CFD0646236871
:100DC4009903B2D5FFF726FD801B6428F7D9E6E71F
:100DD400B3F5A02F236803D143F480232360CFE726
:100DE40023F480332360236823F48023CBE7684C07
:100DF400636813F00C0F07D0636803F00C03082B2F
:100E040010D16368DA030DD423689B0702D52B69DC
:100E1400012BAFD123686A6923F0F80343EAC203C4
:100E2400236085E72A695B4B6AB101221A60FFF7E8
:100E3400F1FC064623689F07ECD4FFF7EBFC801B0C
:100E44000228F7D9ABE71A60FFF7E4FC06462368EB
:100E540098077FF56DAFFFF7DDFC801B0228F6D9FC
:100E64009DE7AA694A4E4B4BE2B10122C3F88024A4
:100E7400FFF7D0FC0446736A9B070DD54FF4FA5272
:100E8400454B1B68B3FBF2F3019300BF019B5A1E51
:100E94000192002BF9D14FE7FFF7BCFC001B02289D
:100EA400E9D97CE7C3F88024FFF7B4FC0446736AED
:100EB4009F077FF541AFFFF7ADFC001B0228F6D971
:100EC4006DE7334CE369D80024D40127E36943F088
:100ED4008053E361E36903F080530093009B2F4E3A
:100EE4003368D90518D5EB68012B26D1236A43F062
:100EF40001032362FFF78EFC41F288380646236A19
:100F04009B073FD5002F3FF41BAFE36923F08053C9
:100F1400E36115E70027E2E7336843F48073336045
:100F2400FFF778FC80463368DA05DCD4FFF772FCFF
:100F3400A0EB08006428F6D931E7ABB9236A41F283
:100F4400883823F001032362236A23F00403236215
:100F5400FFF760FC0646236A9807D3D5FFF75AFCCF
:100F6400801B4045F7D91AE7052B236A03D143F0C8
:100F740004032362BAE723F001032362236A23F004
:100F84000403B6E7FFF746FC801B4045B7D906E7E4
:100F940000100240000042420000002000700040A7
:100FA4002A4C626802F00C02082A3ED00022022B6E
:100FB400274B1A662CD1FFF72DFC064623689901AE
:100FC40020D42B6AB3F5803F05D16268A96822F466
:100FD40000320A436260696A62680B4322F4741245
:100FE4001343012263601A4B1A66FFF713FC05468C
:100FF40023689A013FF5A8AEFFF70CFC401B0228BA
:10100400F6D9CCE6FFF706FC801B0228D6D9C6E643
:10101400FFF700FC054623689B017FF595AEFFF7BB
:10102400F9FB401B0228F6D9B9E6012B3FF4A2AE26
:1010340060682B6A00F480329A427FF49BAE6B6A3C
:1010440000F47010C01A18BF0120A9E60010024075
:10105400000042420D4A536803F00C01082912D1E2
:101064000B48C3F38341DB03405C09D55368094A49
:10107400C3F340435043084AD35CB0FBF3F07047DA
:10108400064B584370470348704700BF00100240A6
:10109400A425000800127A00A225000800093D00DA
:1010A4002DE9F0410D46044610B90120BDE8F08158
:1010B400444A136803F007038B4228D321688E0740
:1010C40030D4CA0743D43F4A136803F00703AB4242
:1010D40065D822683C4D12F0040F6CD1130706D575
:1010E4006B68226923F4605343EAC2036B60FFF721
:1010F400B1FF6B68354AC3F30313D35CD840344B58
:101104001860344B1868FFF743FB0020CEE71368E0
:1011140023F007030B431360136803F007038B42A8
:10112400C3D1CBE7284B11F0040F1EBF5A6842F419
:10113400E0625A60080742BF5A6842F460525A603B
:101144005A68A06822F0F00202435A60B9E7626864
:101154001D4E012A33681AD113F4003FA5D07368D9
:1011640041F2883823F0030313437360FFF752FB03
:1011740007467368626803F00C03B3EB820FA2D0D6
:10118400FFF748FBC01B4045F3D903208EE7022A32
:1011940002D113F0007FE1E713F0020FDEE71368DA
:1011A40023F007032B431360136803F00703AB42D8
:1011B4007FF47BAF8DE76B68E16823F4E0630B4356
:1011C4006B608BE70020024000100240922500086B
:1011D4000000002008000020044B054A5B68C3F3AC
:1011E4000223D35C034A1068D840704700100240C1
:1011F4008A25000800000020044B054A5B68C3F3FD
:10120400C223D35C034A1068D840704700100240E0
:101214008A2500080000002010B504460368C16850
:101224001A6922F440520A431A6182680069D96833
:101234000243606921F4B05121F00C0102430A43D6
:10124400DA605A69A16922F440720A435A610E4A6B
:10125400934215D1FFF7D0FF1923434362682068F6
:101264009200B3FBF2F36422B3FBF2F102FB1133FD
:101274001B013233B3FBF2F303EB0113836010BDA4
:10128400FFF7AAFFE8E700BF00380140F8B50446BD
:101294000E4617461D462268136836EA030301D139
:1012A400002028E06B1CF7D025B1FFF7B3FAC01B70
:1012B4008542F0D2226802F10C0353E8003F23F484
:1012C400D0730C3242E8003021680028F2D101F1D9
:1012D400140353E8003F23F0010301F1140040E834
:1012E4000032002AF3D12023032084F8413084F80B
:1012F400402084F84230F8BD10B5044648B390F855
:10130400413003F0FF021BB980F84020FFF772F967
:101314002423226884F84130D368204623F4005300
:10132400D360FFF779FF236800201A6922F4904202
:101334001A615A6922F02A025A61DA6842F40052A8
:10134400DA602023606484F8413084F842306063BA
:1013540010BD0120FCE72DE9F843984690F8413090
:101364000446202B0E4617463CD100293CD0002AC7
:101374003AD021230025456480F84130FFF74AFA2A
:10138400A3688146B3F5805FA784E78403D123690A
:101394000BB935461E46E38C9BB253B943464A46C5
:1013A40040212046FFF772FF50B9202384F84130D2
:1013B40007E043464A4680212046FFF767FF10B105
:1013C4000320BDE8F88322684EB935F8023BC3F325
:1013D40008035360E18C013989B2E184DBE716F834
:1013E400013BF6E70220ECE70120EAE72DE9F843A8
:1013F4001F4690F842300446202B0E46914643D1B6
:10140400002943D0002A41D022230025456480F8D6
:1014140042300563FFF7FEF9A3688046B3F5805FA9
:10142400A4F82C90A4F82E9003D123690BB9354667
:101434001E46E08D80B220B9202384F84230BDE8F6
:10144400F8833B46424620212046FFF71FFFF8B9A8
:1014540023684EB95B68C3F3080325F8023BE38DA8
:10146400013B9BB2E385E4E7A268B2F5805F02D05A
:1014740032B9226922B95968C9B206F8011BEEE7EC
:10148400596801F07F01F8E70220D8E70120D6E788
:101494000320D4E7002310B50446C0E90033C0E9B3
:1014A4000433836081814366C281836119460822C3
:1014B4005C3000F0F9F90D4B246263620C4BA362BB
:1014C4000C4BE3620C4B23630C4B9C4206D003F1A0
:1014D4006802944202D0D0339C4205D104F15800F2
:1014E400BDE8104000F058BA10BD00BFFD1600085A
:1014F4001F170008571700087B1700084001002039
:10150400024A0349034800F069B800BF0C000020F8
:10151400352200081C00002041680C4B10B599428C
:10152400044601D000F084FEA168094B994202D020
:10153400204600F07DFEE168064B994204D0204627
:10154400BDE8104000F074BE10BD00BF4001002093
:10155400A80100201002002010B50B4B0B4C0C4AC4
:1015640020461A6004210022FFF794FF04F168006A
:1015740001220921FFF78EFF04F1D0000222BDE809
:1015840010401221FFF786BF78020020400100209E
:1015940005150008014800F000BA00BF81020020D0
:1015A400014800F0FBB900BF8102002010B50446D9
:1015B400FFF7F0FF236A1BB1BDE81040FFF7F0BF4F
:1015C400044B2362044B1B68002BF5D1FFF7C4FFC7
:1015D400F2E700BF1D150008780200202DE9F8434A
:1015E4000746884614460026D4E90195B9F1010955
:1015F40005D52468002CF7D13046BDE8F883AB89C3
:10160400012B07D9B5F90E30013303D029463846EA
:10161400C04706436835E9E70FB407B5064904AB8C
:10162400086853F8042B8168019300F0D7FA03B0DB
:101634005DF804EB04B0704718000020036A70B52D
:1016440005460E4684680BB9FFF7B0FF636EDB07EF
:1016540005D4A389980502D4A06D00F09EF9A3894E
:10166400190702D52369002B35D12146284600F0FD
:10167400C5F880B34FF0FF35636EDA0705D4A3894C
:101684009B0502D4A06D00F089F9284670BD002B9B
:1016940004DAA2699A4217DC0A2915D023685A1C75
:1016A40022601970A36816F8011F013BA36000298A
:1016B400EDD1002B11DA22460A21284600F05FF80A
:1016C4000130D7D00A25D7E72246284600F057F83C
:1016D4000130E7D1CEE7013EE4E723685A1C2260DB
:1016E4000A221A70EEE70000024B01461868FFF761
:1016F400A5BF00BF1800002010B50C46B1F90E10AC
:1017040000F0FCF80028ABBF636DA3891B1823F419
:101714008053ACBF6365A38110BD2DE9F0411F4622
:101724008B890546DB050C46164605D502230022A7
:10173400B1F90E1000F0D0F8A389324623F4805397
:10174400A38128463B46B4F90E10BDE8F04100F0F1
:10175400E7B810B50C46B1F90E1000F0BDF8431C03
:10176400A38915BF606523F4805343F48053A38198
:1017740018BFA38110BDB1F90E1000F09DB8F8B5E3
:101784000E461446054618B1036A0BB9FFF70EFF5F
:10179400A369A360A3891A0701D5236943B9214624
:1017A400284600F02BF818B14FF0FF373846F8BD43
:1017B40023682269F6B2981A63693746834205DCC6
:1017C4002146284600F034FD0028EDD1A368013BF2
:1017D400A36023685A1C22601E706269431C9A42EB
:1017E40004D0A389DB07E1D50A2EDFD121462846A0
:1017F40000F01EFD0028D9D0D6E7000038B5294BEB
:10180400054618680C4618B1036A0BB9FFF7CEFEFB
:10181400B4F90C30190722D4DA0607D409222A6055
:1018240043F040034FF0FF30A38133E0580712D553
:10183400616B41B104F14403994202D0284600F09F
:10184400AFF800236363A38923F02403A381002357
:10185400636023692360A38943F00803A381236998
:101864004BB9A38903F42073B3F5007F03D0214659
:10187400284600F02AFDB4F90C3013F001020AD016
:101884000022A26062695242A261226942B913F045
:101894008000C5D138BD990758BF6269A260F4E7DA
:1018A4000020F7E71800002003460244934200D1C9
:1018B400704703F8011BF9E738B50023054D0446CA
:1018C40008462B60FEF710FF431C02D12B6803B1BE
:1018D400236038BD7C02002038B504460846114612
:1018E4000022054D2A601A46FEF708FF431C02D168
:1018F4002B6803B1236038BD7C02002038B5044650
:10190400084611460022054D2A601A46FEF7DEFEFF
:10191400431C02D12B6803B1236038BD7C02002034
:1019240038B50446084611460022054D2A601A4679
:10193400FEF79CFD431C02D12B6803B1236038BD24
:101944007C020020014B1868704700BF180000207B
:1019540070B500260C4D0D4C641BA410A64209D191
:1019640000F030FD00260A4D0A4C641BA410A64268
:1019740005D170BD55F8043B98470136EEE755F89C
:10198400043B98470136F2E7E8250008E8250008FB
:10199400E8250008EC2500087047704770470000F0
:1019A40038B50546002940D051F8043C0C1F002BE3
:1019B400B8BFE41800F0DEF81C4A136833B963605A
:1019C40014602846BDE8384000F0DAB8A34208D9CC
:1019D400206821188B4201BF19685B6809182160CF
:1019E400EDE71A465B680BB1A342FAD911685018A7
:1019F400A0420BD120680144501883421160E0D109
:101A040018685B68084410605360DAE702D90C2355
:101A14002B60D6E7206821188B4201BF19685B68E8
:101A24000918216063605460CBE738BD8802002048
:101A340070B50F4E0C463168054611B900F0A4FC90
:101A440030602146284600F09FFC431C03D14FF030
:101A5400FF34204670BDC41C24F00304A042F8D017
:101A6400211A284600F090FC0130F2D1EFE700BFC4
:101A7400840200202DE9F843CD1C25F00305083528
:101A84000C2D38BF0C25002D064601DBA94204D9D4
:101A94000C2333600020BDE8F883DFF8D48000F025
:101AA40069F8D8F800301C4644BB29463046FFF795
:101AB400BFFF431C044658D1D8F800402746002FE6
:101AC40043D1002C4BD023683946304604EB03093C
:101AD40000F05AFC814542D1216830466D1A2946EE
:101AE400FFF7A6FF01303AD023682B442360D8F8CF
:101AF40000305A6862BBC8F800700FE02268521BBD
:101B040020D40B2A17D96119A342256018BF596044
:101B1400636808BFC8F8001062514B60304600F09B
:101B24002FF804F10B00231D20F00700C21A1CBF7C
:101B34001B1AA350AFE76268A3420CBFC8F8002089
:101B44005A60EBE723466468AEE73C467F68B6E735
:101B54001A465B68A342FBD100235360DEE70C23E3
:101B64003046336000F00CF894E70560D6E700BF18
:101B7400880200200148FFF710BF00BF8002002048
:101B84000148FFF70BBF00BF80020020936810B428
:101B9400013B002B936007DA9469A34201DB0A2915
:101BA40002D110BCFFF7EBBD1368581C106019700C
:101BB400084610BC7047F8B506460F461446D518BB
:101BC400AC4201D1002007E03A46304614F8011B2C
:101BD400FFF7DCFF431CF3D1F8BD00002DE9F04F03
:101BE4000D461446984606469DB018B1036A0BB9D3
:101BF400FFF7DCFC6B6ED90705D4AB899A0502D4D8
:101C0400A86DFFF7CAFEAB891B0701D52B699BB9E9
:101C140029463046FFF7F2FD70B16B6EDC0704D540
:101C24004FF0FF301DB0BDE8F08FAB899805F7D4B5
:101C3400A86DFFF7B3FEF3E70023099320238DF883
:101C4400293030234FF00109CDF80C80DFF8A8814A
:101C54008DF82A3023469A4613F8012B0AB1252A17
:101C6400F9D1BAEB040B0BD05B4622462946304629
:101C7400FFF7A1FF013000F0A780099A5A440992A6
:101C84009AF80030002B00F09F8000234FF0FF32C1
:101C9400CDE905230AF1010A049307938DF8533023
:101CA4001A935446052214F8011B534800F07CFB98
:101CB400049AD8B9D10644BF20238DF853301307B2
:101CC40044BF2B238DF853309AF800302A2B15D0BB
:101CD400544600204FF00A0C079A214611F8013BA4
:101CE400303B092B4BD9B0B1079214E0A0EB0803A9
:101CF40009FA03F31343A2460493D2E7039B191D85
:101D04001B680391002BBBBF5B4242F002020793A6
:101D14000793B8BF049223782E2B0AD163782A2B19
:101D240032D1039B02341A1D1B68039243EAE37306
:101D34000593DFF8C8A003225046217800F034FB55
:101D440038B14022049BA0EB0A00824013430134C3
:101D5400049314F8011B062229488DF8281000F07A
:101D640023FB00283FD0274B1BBB039B073323F0E7
:101D7400070308330393099B3B4409936AE70C4622
:101D840001200CFB0232A8E700234FF00A0C19468D
:101D940001340593204610F8012B303A092A03D95F
:101DA400002BC6D00591C4E7044601230CFB012196
:101DB400F0E703AB00932A463046134B04A9AFF374
:101DC40000800746781CD6D16B6ED90705D4AB8941
:101DD4009A0502D4A86DFFF7E1FDAB895B063FF5D8
:101DE4001FAF09981EE703AB00932A463046064B03
:101DF40004A900F07DF8E4E7B4250008BA2500083A
:101E0400BE25000800000000BB1B00082DE9F047B8
:101E1400164698468A680B6907469342B8BF13462C
:101E2400336091F843200C46DDF820900AB1013369
:101E340033602368990642BF3368023333602568F0
:101E440015F0060506D104F1190AE36832689B1AF5
:101E5400AB422BDC94F843302268003B18BF0123CB
:101E6400920630D44146384604F14302C847013053
:101E740023D02368226903F00603042B14BF002532
:101E840033684FF0000608BFE56804F11A0408BF80
:101E9400ED1A54F8123C08BF25EAE5759342C4BF15
:101EA4009B1AED18B5421AD1002008E001235246CE
:101EB40041463846C847013003D14FF0FF30BDE8F2
:101EC400F0870135C1E73020E11881F843005A1C3E
:101ED40094F845102244023382F84310C2E70123E8
:101EE400224641463846C8470130E6D00136D9E794
:101EF4002DE9FF470F7E9146782F80460C469A467F
:101F04000C9E01F1430207D8622F0AD8002F00F07B
:101F1400D380582F00F0BA8004F1420684F842704E
:101F24003AE0A7F16303152BF6D801A151F823F089
:101F34008D1F0008A11F00081D1F00081D1F000899
:101F44001D1F00081D1F0008A11F00081D1F0008F9
:101F54001D1F00081D1F00081D1F0008A3200008E6
:101F6400CB1F00085D2000081D1F00081D1F00086E
:101F7400C52000081D1F0008CB1F00081D1F0008F6
:101F84001D1F00086520000833681A1D1B68326095
:101F940004F1420684F8423001239EE0336820684D
:101FA400191D3160060601D51D6803E04506FBD501
:101FB400B3F90050002D03DA2D236D4284F8433029
:101FC4000A23594811E021683368080653F8045B72
:101FD40002D4490648BFADB26F2F336014BF0A2341
:101FE40008235148002184F843106668002EA8BFD6
:101FF4002168A660A4BF21F0040121600DB9002E60
:102004004BD01646B5FBF3F103FB1157C75D06F839
:10201400017D2F46BB420D46F4D9082B0BD1236812
:10202400DF0708D5236961689942DEBF302306F8CB
:10203400013C06F1FF36921B22614B462146404685
:10204400CDF800A003AAFFF7E1FE01304AD14FF01A
:10205400FF3004B0BDE8F087236843F02003236019
:102064007827324884F84570236831681F0651F890
:10207400045B02D45F0648BFADB23160D90744BFE8
:1020840043F0200323601DB11023ABE72648E9E7A2
:10209400236823F020032360F6E71646BDE7336880
:1020A4002568181D616930602E061B6801D519600A
:1020B40002E06806FBD51980002316462361BCE7BD
:1020C400336800211A1D32601E686268304600F0D1
:1020D4006BF908B1801B606063682361002384F896
:1020E4004330AAE73246494640462369D047013087
:1020F400ADD023689B0713D4E068039B9842B8BF14
:102104001846A6E70123324649464046D0470130E7
:102114009DD00135E36803995B1AAB42F2DCEBE72F
:10212400002504F11906F5E7C5250008D6250008A1
:10213400B1F90C20F8B5160705460C4654D44B6883
:10214400002B02DC0B6C002B48DDE66A002E45D028
:10215400002312F480522F68216A2B6030D0626D04
:10216400A389590705D56368D21A636B0BB1236C35
:10217400D21A00232846E66A216AB047431CA38981
:1021840006D129681D292BD8284A0A41D60727D405
:10219400002262602269D904226004D5421C01D164
:1021A4002B6803B96065616B2F60B9B104F1440316
:1021B400994202D02846FFF7F3FB002363630DE046
:1021C40001232846B0470246501CC9D12B68002B76
:1021D400C6D01D2B01D0162B1DD12F60002021E06D
:1021E40043F040031BB21AE00F69002FF6D09307A7
:1021F40018BF00230E6808BF4B69F61B0F608B6085
:10220400002EEBDD33463A462846216AD4F828C02E
:10221400E047002807DCB4F90C3043F040034FF0EA
:10222400FF30A381F8BD0744361AE9E7FEFFBFDF9C
:1022340038B50B6905460C4613B90025284638BD48
:1022440018B1036A0BB9FFF7B1F9B4F90C30002BDC
:10225400F3D0626ED00704D4990502D4A06DFFF7C1
:102264009CFB28462146FFF763FF636E0546DA07A9
:10227400E4D4A3899B05E1D4A06DFFF78FFBDDE7D0
:1022840070B50C46B1F90E10154600291E4696B0DD
:102294000CDAA389002113F0800F14BF40234FF4FC
:1022A4008063002031602B6016B070BD6A4600F078
:1022B40049F80028EDDB019901F47041A1F50053C0
:1022C400594259414FF48063EBE78B89F7B59D0779
:1022D40006460C4607D504F1470323602361012316
:1022E400636103B0F0BD6A4601ABFFF7C9FF009F0D
:1022F400054639463046FFF7BDFB48B9B4F90C3002
:102304009A05EED423F0030343F00203A381E2E72A
:10231400A389C4E9040743F08003A381019B2060DF
:102324005BB13046B4F90E1000F01EF828B1A38951
:1023340023F0030343F00103A381A3891D43A58173
:10234400CFE7000038B50023064D04460846114681
:102354002B60FEF7CCF9431C02D12B6803B1236038
:1023640038BD00BF7C02002038B50023054D04466B
:1023740008462B60FEF7C0F9431C02D12B6803B159
:10238400236038BD7C02002038B50023054D044687
:1023940008462B60FEF7B4F9431C02D12B6803B145
:1023A400236038BD7C020020034610B5C9B2024444
:1023B4009342184601D1002003E0047801338C4293
:1023C400F6D110BDF8B500BFF8BC08BC9E467047F6
:0C23D400F8B500BFF8BC08BC9E4670477E
:1023E0004669726D7761726520557064617465200D
:1023F000537461727465640D004E6F2044617461A2
:1024000020526563656976656420666F722046694F
:10241000726D77617265205570646174650D004757
:102420006574206170706C69636174696F6E2053AC
:10243000697A65206572726F7220287979292E2E4B
:102440002E48414C542121210D00476574206170B4
:10245000706C69636174696F6E2053697A65206579
:1024600072726F72285858292E2E2E48414C5421D2
:1024700021210D004170706C69636174696F6E2079
:1024800053697A65203D2025642062797465730D57
:102490000A00526563656976656420426C6F636B00
:1024A0005B25645D0D0A0045726173696E67207477
:1024B000686520466C617368206D656D6F72792E5A
:1024C0002E2E0D00466C617368205772697465206A
:1024D0004572726F722E2E2E48414C542121210DCF
:1024E00000476574206170706C69636174696F6E18
:1024F00020646174615B696E6465783A25645D206F
:102500006572726F7220287979292E2E2E48414CDF
:10251000542121210D0A00476574206170706C6997
:10252000636174696F6E20646174615B696E646578
:10253000783A25645D206572726F72285858292E8A
:102540002E2E48414C542121210D0A00476F6E6EFA
:1025500061204A756D7020746F204170706C6963E2
:102560006174696F6E2E2E2E0D00496E76616C6956
:1025700064204170706C69636174696F6E2E2E2ED9
:102580002048414C542121210D000000000001028F
:10259000030400000000000000000102030406071D
:1025A0000809010202030405060708090A0B0C0DBD
:1025B0000E0F1010232D302B2000686C4C00656628
:1025C0006745464700303132333435363738394184
:1025D000424344454600303132333435363738399A
:0825E00061626364656600009E
:0425E80009020008DC
:0425EC00E5010008FD
:1025F0000024F400010000001000000000000000B2
:1026000003000000400100201C000020000000002A
:1026100040010020A801002010020020000000005E
:1026200000000000000000000000000000000000AA
:10263000000000000000000000000000000000009A
:10264000000000000000000000000000000000008A
:08265000000000000000000082
:04000005080007499F
:00000001FF
